{
  "contractName": "DoctorStorage",
  "abi": [
    {
      "anonymous": false,
      "inputs": [
        {
          "indexed": false,
          "internalType": "uint256",
          "name": "id",
          "type": "uint256"
        },
        {
          "indexed": false,
          "internalType": "string",
          "name": "name",
          "type": "string"
        },
        {
          "indexed": false,
          "internalType": "string",
          "name": "email",
          "type": "string"
        },
        {
          "indexed": false,
          "internalType": "string",
          "name": "password",
          "type": "string"
        }
      ],
      "name": "DoctorCreated",
      "type": "event"
    },
    {
      "constant": true,
      "inputs": [],
      "name": "doctorCount",
      "outputs": [
        {
          "internalType": "uint256",
          "name": "",
          "type": "uint256"
        }
      ],
      "payable": false,
      "stateMutability": "view",
      "type": "function"
    },
    {
      "constant": true,
      "inputs": [
        {
          "internalType": "string",
          "name": "key",
          "type": "string"
        }
      ],
      "name": "isDoctor",
      "outputs": [
        {
          "internalType": "bool",
          "name": "isIndeed",
          "type": "bool"
        }
      ],
      "payable": false,
      "stateMutability": "view",
      "type": "function"
    },
    {
      "constant": false,
      "inputs": [
        {
          "internalType": "string",
          "name": "_name",
          "type": "string"
        },
        {
          "internalType": "string",
          "name": "_email",
          "type": "string"
        },
        {
          "internalType": "string",
          "name": "_password",
          "type": "string"
        }
      ],
      "name": "createDoctor",
      "outputs": [],
      "payable": false,
      "stateMutability": "nonpayable",
      "type": "function"
    },
    {
      "constant": true,
      "inputs": [
        {
          "internalType": "uint256",
          "name": "index",
          "type": "uint256"
        }
      ],
      "name": "getDoctor",
      "outputs": [
        {
          "internalType": "uint256",
          "name": "",
          "type": "uint256"
        },
        {
          "internalType": "string",
          "name": "",
          "type": "string"
        },
        {
          "internalType": "string",
          "name": "",
          "type": "string"
        },
        {
          "internalType": "string",
          "name": "",
          "type": "string"
        }
      ],
      "payable": false,
      "stateMutability": "view",
      "type": "function"
    }
  ],
  "bytecode": "0x60806040526000805534801561001457600080fd5b50610bb5806100246000396000f3fe608060405234801561001057600080fd5b506004361061004c5760003560e01c8063382e42141461005157806369b0a72d1461023a57806378522bc4146103c057806395122c52146103de575b600080fd5b6102386004803603606081101561006757600080fd5b810190808035906020019064010000000081111561008457600080fd5b82018360208201111561009657600080fd5b803590602001918460018302840111640100000000831117156100b857600080fd5b91908080601f016020809104026020016040519081016040528093929190818152602001838380828437600081840152601f19601f8201169050808301925050505050505091929192908035906020019064010000000081111561011b57600080fd5b82018360208201111561012d57600080fd5b8035906020019184600183028401116401000000008311171561014f57600080fd5b91908080601f016020809104026020016040519081016040528093929190818152602001838380828437600081840152601f19601f820116905080830192505050505050509192919290803590602001906401000000008111156101b257600080fd5b8201836020820111156101c457600080fd5b803590602001918460018302840111640100000000831117156101e657600080fd5b91908080601f016020809104026020016040519081016040528093929190818152602001838380828437600081840152601f19601f8201169050808301925050505050505091929192905050506104b1565b005b6102666004803603602081101561025057600080fd5b8101908080359060200190929190505050610771565b60405180858152602001806020018060200180602001848103845287818151815260200191508051906020019080838360005b838110156102b4578082015181840152602081019050610299565b50505050905090810190601f1680156102e15780820380516001836020036101000a031916815260200191505b50848103835286818151815260200191508051906020019080838360005b8381101561031a5780820151818401526020810190506102ff565b50505050905090810190601f1680156103475780820380516001836020036101000a031916815260200191505b50848103825285818151815260200191508051906020019080838360005b83811015610380578082015181840152602081019050610365565b50505050905090810190601f1680156103ad5780820380516001836020036101000a031916815260200191505b5097505050505050505060405180910390f35b6103c8610984565b6040518082815260200191505060405180910390f35b610497600480360360208110156103f457600080fd5b810190808035906020019064010000000081111561041157600080fd5b82018360208201111561042357600080fd5b8035906020019184600183028401116401000000008311171561044557600080fd5b91908080601f016020809104026020016040519081016040528093929190818152602001838380828437600081840152601f19601f82011690508083019250505050505050919291929050505061098a565b604051808215151515815260200191505060405180910390f35b6104ba8261098a565b1561052d576040517f08c379a00000000000000000000000000000000000000000000000000000000081526004018080602001828103825260158152602001807f446f63746f7220616c726561647920657869737473000000000000000000000081525060200191505060405180910390fd5b6000808154809291906001019190505550600060016000805481526020019081526020016000209050600054816000018190555083816001019080519060200190610579929190610adb565b5082816002019080519060200190610592929190610adb565b50818160030190805190602001906105ab929190610adb565b5060028390806001815401808255809150509060018203906000526020600020016000909192909190915090805190602001906105e9929190610adb565b50507f58f373e169a749774e0fea47c84c08f7fa5e788a7e8b23a36e2882981222bc7160005485858560405180858152602001806020018060200180602001848103845287818151815260200191508051906020019080838360005b83811015610660578082015181840152602081019050610645565b50505050905090810190601f16801561068d5780820380516001836020036101000a031916815260200191505b50848103835286818151815260200191508051906020019080838360005b838110156106c65780820151818401526020810190506106ab565b50505050905090810190601f1680156106f35780820380516001836020036101000a031916815260200191505b50848103825285818151815260200191508051906020019080838360005b8381101561072c578082015181840152602081019050610711565b50505050905090810190601f1680156107595780820380516001836020036101000a031916815260200191505b5097505050505050505060405180910390a150505050565b6000606080606060006001600087815260200190815260200160002090508060000154816001018260020183600301828054600181600116156101000203166002900480601f0160208091040260200160405190810160405280929190818152602001828054600181600116156101000203166002900480156108355780601f1061080a57610100808354040283529160200191610835565b820191906000526020600020905b81548152906001019060200180831161081857829003601f168201915b50505050509250818054600181600116156101000203166002900480601f0160208091040260200160405190810160405280929190818152602001828054600181600116156101000203166002900480156108d15780601f106108a6576101008083540402835291602001916108d1565b820191906000526020600020905b8154815290600101906020018083116108b457829003601f168201915b50505050509150808054600181600116156101000203166002900480601f01602080910402602001604051908101604052809291908181526020018280546001816001161561010002031660029004801561096d5780601f106109425761010080835404028352916020019161096d565b820191906000526020600020905b81548152906001019060200180831161095057829003601f168201915b505050505090509450945094509450509193509193565b60005481565b60008060028054905014156109a25760009050610ad6565b60008090505b600280549050811015610ad457826040516020018082805190602001908083835b602083106109ec57805182526020820191506020810190506020830392506109c9565b6001836020036101000a0380198251168184511680821785525050505050509050019150506040516020818303038152906040528051906020012060028281548110610a3457fe5b906000526020600020016040516020018082805460018160011615610100020316600290048015610a9c5780601f10610a7a576101008083540402835291820191610a9c565b820191906000526020600020905b815481529060010190602001808311610a88575b5050915050604051602081830303815290604052805190602001201415610ac7576001915050610ad6565b80806001019150506109a8565b505b919050565b828054600181600116156101000203166002900490600052602060002090601f016020900481019282601f10610b1c57805160ff1916838001178555610b4a565b82800160010185558215610b4a579182015b82811115610b49578251825591602001919060010190610b2e565b5b509050610b579190610b5b565b5090565b610b7d91905b80821115610b79576000816000905550600101610b61565b5090565b9056fea265627a7a723158205aa2bf62ce0abe5d8f56b5a52771b57c4b36722152cb9c249130ec2d8055c24264736f6c63430005100032",
  "source": "// SPDX-License-Identifier: UNLICENSED\r\npragma solidity >=0.4.22 <0.9.0;\r\n\r\n/// @title A storage method for doctor account information\r\n/// @author Colin John LeMesurier\r\n\r\ncontract DoctorStorage {\r\n\tuint public doctorCount = 0;\r\n\r\n\tstruct Doctor {\r\n\t\tuint id;\r\n\t\tstring name;\r\n\t\tstring email;\r\n\t\tstring password;\r\n\t}\r\n\r\n\tmapping(uint => Doctor) doctors;\r\n\tstring[] private doctorIndex;\r\n\r\n\tevent DoctorCreated(uint id, string name, string email, string password);\r\n\r\n\t/**\r\n\t * Check whether a doctor with the same email already exists in the system\r\n\t *\r\n\t * @param key   the doctor's email\r\n\t */\r\n\tfunction isDoctor(string memory key) public view returns (bool isIndeed) {\r\n\t\tif (doctorIndex.length == 0) return false;\r\n\t\tfor (uint i = 0; i < doctorIndex.length; i++) {\r\n\t\t\tif (keccak256(abi.encodePacked((doctorIndex[i]))) == keccak256(abi.encodePacked((key)))) return true;\r\n\t\t}\r\n\t}\r\n\r\n\t/**\r\n\t * Create an account for a doctor and store the information on the blockchain\r\n\t *\r\n\t * @param _name       the doctor's name\r\n\t * @param _email      the doctor's email\r\n\t * @param _password   the doctor's account password\r\n\t */\r\n\tfunction createDoctor(string memory _name, string memory _email, string memory _password) public {\r\n\t\trequire(!isDoctor(_email), \"Doctor already exists\");\r\n\t\tdoctorCount++;\r\n\t\tDoctor storage d = doctors[doctorCount];\r\n\t\td.id = doctorCount;\r\n\t\td.name = _name;\r\n\t\td.email = _email;\r\n\t\td.password = _password;\r\n\t\tdoctorIndex.push(_email);\r\n\t\temit DoctorCreated(doctorCount, _name, _email, _password);\r\n\t\t\r\n\t}\r\n\r\n\t/**\r\n     * Returns a doctor using their ID number as the index.\r\n     *\r\n     * @param index   the index for the requested doctor\r\n     * @return        an object containing requested doctor's data\r\n     */\r\n\tfunction getDoctor(uint index) public view returns (uint, string memory, string memory, string memory) {\r\n\t\tDoctor storage d = doctors[index];\r\n\t\treturn (d.id, d.name, d.email, d.password);\r\n\t}\r\n\r\n}",
  "sourcePath": "C:/Users/coliw/Documents/drizzle-healthcare/contracts/DoctorStorage.sol",
  "compiler": {
    "name": "solc",
    "version": "0.5.16+commit.9c3226ce.Emscripten.clang"
  },
  "schemaVersion": "3.3.4",
  "updatedAt": "2021-07-01T15:01:54.465Z",
  "networkType": "ethereum",
  "devdoc": {
    "author": "Colin John LeMesurier",
    "methods": {
      "createDoctor(string,string,string)": {
        "params": {
          "_email": "the doctor's email",
          "_name": "the doctor's name",
          "_password": "the doctor's account password"
        }
      },
      "getDoctor(uint256)": {
        "params": {
          "index": "the index for the requested doctor"
        },
        "return": "an object containing requested doctor's data"
      },
      "isDoctor(string)": {
        "params": {
          "key": "the doctor's email"
        }
      }
    },
    "title": "A storage method for doctor account information"
  },
  "userdoc": {
    "methods": {
      "createDoctor(string,string,string)": {
        "notice": "Create an account for a doctor and store the information on the blockchain "
      },
      "getDoctor(uint256)": {
        "notice": "Returns a doctor using their ID number as the index. "
      },
      "isDoctor(string)": {
        "notice": "Check whether a doctor with the same email already exists in the system "
      }
    }
  }
}