{
  "contractName": "PatientRecord",
  "abi": [
    {
      "anonymous": false,
      "inputs": [
        {
          "indexed": false,
          "internalType": "uint256",
          "name": "id",
          "type": "uint256"
        },
        {
          "indexed": false,
          "internalType": "string",
          "name": "patient",
          "type": "string"
        },
        {
          "indexed": false,
          "internalType": "uint256",
          "name": "recordCount",
          "type": "uint256"
        }
      ],
      "name": "PatientCreated",
      "type": "event"
    },
    {
      "anonymous": false,
      "inputs": [
        {
          "indexed": false,
          "internalType": "uint256",
          "name": "patientID",
          "type": "uint256"
        },
        {
          "indexed": false,
          "internalType": "uint256",
          "name": "recordID",
          "type": "uint256"
        },
        {
          "indexed": false,
          "internalType": "string",
          "name": "title",
          "type": "string"
        },
        {
          "indexed": false,
          "internalType": "string",
          "name": "content",
          "type": "string"
        }
      ],
      "name": "RecordCreated",
      "type": "event"
    },
    {
      "constant": true,
      "inputs": [],
      "name": "patientCount",
      "outputs": [
        {
          "internalType": "uint256",
          "name": "",
          "type": "uint256"
        }
      ],
      "payable": false,
      "stateMutability": "view",
      "type": "function"
    },
    {
      "constant": true,
      "inputs": [
        {
          "internalType": "uint256",
          "name": "",
          "type": "uint256"
        }
      ],
      "name": "patients",
      "outputs": [
        {
          "internalType": "uint256",
          "name": "id",
          "type": "uint256"
        },
        {
          "internalType": "string",
          "name": "patient",
          "type": "string"
        },
        {
          "internalType": "uint256",
          "name": "key",
          "type": "uint256"
        }
      ],
      "payable": false,
      "stateMutability": "view",
      "type": "function"
    },
    {
      "constant": true,
      "inputs": [
        {
          "internalType": "uint256",
          "name": "",
          "type": "uint256"
        }
      ],
      "name": "recordCount",
      "outputs": [
        {
          "internalType": "uint256",
          "name": "",
          "type": "uint256"
        }
      ],
      "payable": false,
      "stateMutability": "view",
      "type": "function"
    },
    {
      "constant": true,
      "inputs": [
        {
          "internalType": "uint256",
          "name": "key",
          "type": "uint256"
        }
      ],
      "name": "isPatient",
      "outputs": [
        {
          "internalType": "bool",
          "name": "isIndeed",
          "type": "bool"
        }
      ],
      "payable": false,
      "stateMutability": "view",
      "type": "function"
    },
    {
      "constant": false,
      "inputs": [
        {
          "internalType": "string",
          "name": "_patient",
          "type": "string"
        },
        {
          "internalType": "uint256",
          "name": "key",
          "type": "uint256"
        }
      ],
      "name": "createPatient",
      "outputs": [],
      "payable": false,
      "stateMutability": "nonpayable",
      "type": "function"
    },
    {
      "constant": false,
      "inputs": [
        {
          "internalType": "uint256",
          "name": "_id",
          "type": "uint256"
        },
        {
          "internalType": "string",
          "name": "_title",
          "type": "string"
        },
        {
          "internalType": "string",
          "name": "_content",
          "type": "string"
        }
      ],
      "name": "createRecord",
      "outputs": [],
      "payable": false,
      "stateMutability": "nonpayable",
      "type": "function"
    },
    {
      "constant": true,
      "inputs": [
        {
          "internalType": "uint256",
          "name": "index",
          "type": "uint256"
        }
      ],
      "name": "getPatient",
      "outputs": [
        {
          "internalType": "uint256",
          "name": "",
          "type": "uint256"
        },
        {
          "internalType": "string",
          "name": "",
          "type": "string"
        },
        {
          "internalType": "uint256",
          "name": "",
          "type": "uint256"
        }
      ],
      "payable": false,
      "stateMutability": "view",
      "type": "function"
    },
    {
      "constant": true,
      "inputs": [
        {
          "internalType": "uint256",
          "name": "patientIndex",
          "type": "uint256"
        },
        {
          "internalType": "uint256",
          "name": "recordIndex",
          "type": "uint256"
        }
      ],
      "name": "getRecord",
      "outputs": [
        {
          "internalType": "uint256",
          "name": "",
          "type": "uint256"
        },
        {
          "internalType": "string",
          "name": "",
          "type": "string"
        },
        {
          "internalType": "string",
          "name": "",
          "type": "string"
        }
      ],
      "payable": false,
      "stateMutability": "view",
      "type": "function"
    }
  ],
  "bytecode": "0x60806040526000805534801561001457600080fd5b50610dd7806100246000396000f3fe608060405234801561001057600080fd5b50600436106100885760003560e01c806393119a831161005b57806393119a8314610487578063a0303c411461053c578063dbc9cc531461055a578063effa334c1461059c57610088565b8063334065021461008d57806335c5c904146101b1578063580d80381461030d5780637d3a6796146103d2575b600080fd5b6100c3600480360360408110156100a357600080fd5b8101908080359060200190929190803590602001909291905050506105e2565b604051808481526020018060200180602001838103835285818151815260200191508051906020019080838360005b8381101561010d5780820151818401526020810190506100f2565b50505050905090810190601f16801561013a5780820380516001836020036101000a031916815260200191505b50838103825284818151815260200191508051906020019080838360005b83811015610173578082015181840152602081019050610158565b50505050905090810190601f1680156101a05780820380516001836020036101000a031916815260200191505b509550505050505060405180910390f35b61030b600480360360608110156101c757600080fd5b8101908080359060200190929190803590602001906401000000008111156101ee57600080fd5b82018360208201111561020057600080fd5b8035906020019184600183028401116401000000008311171561022257600080fd5b91908080601f016020809104026020016040519081016040528093929190818152602001838380828437600081840152601f19601f8201169050808301925050505050505091929192908035906020019064010000000081111561028557600080fd5b82018360208201111561029757600080fd5b803590602001918460018302840111640100000000831117156102b957600080fd5b91908080601f016020809104026020016040519081016040528093929190818152602001838380828437600081840152601f19601f82011690508083019250505050505050919291929050505061078d565b005b6103d06004803603604081101561032357600080fd5b810190808035906020019064010000000081111561034057600080fd5b82018360208201111561035257600080fd5b8035906020019184600183028401116401000000008311171561037457600080fd5b91908080601f016020809104026020016040519081016040528093929190818152602001838380828437600081840152601f19601f82011690508083019250505050505050919291929080359060200190929190505050610974565b005b6103fe600480360360208110156103e857600080fd5b8101908080359060200190929190505050610ace565b6040518084815260200180602001838152602001828103825284818151815260200191508051906020019080838360005b8381101561044a57808201518184015260208101905061042f565b50505050905090810190601f1680156104775780820380516001836020036101000a031916815260200191505b5094505050505060405180910390f35b6104b36004803603602081101561049d57600080fd5b8101908080359060200190929190505050610bb1565b6040518084815260200180602001838152602001828103825284818151815260200191508051906020019080838360005b838110156104ff5780820151818401526020810190506104e4565b50505050905090810190601f16801561052c5780820380516001836020036101000a031916815260200191505b5094505050505060405180910390f35b610544610c73565b6040518082815260200191505060405180910390f35b6105866004803603602081101561057057600080fd5b8101908080359060200190929190505050610c79565b6040518082815260200191505060405180910390f35b6105c8600480360360208110156105b257600080fd5b8101908080359060200190929190505050610c91565b604051808215151515815260200191505060405180910390f35b6000606080600060026000878152602001908152602001600020905080600301600086815260200190815260200160002060000154816003016000878152602001908152602001600020600101826003016000888152602001908152602001600020600201818054600181600116156101000203166002900480601f0160208091040260200160405190810160405280929190818152602001828054600181600116156101000203166002900480156106dc5780601f106106b1576101008083540402835291602001916106dc565b820191906000526020600020905b8154815290600101906020018083116106bf57829003601f168201915b50505050509150808054600181600116156101000203166002900480601f0160208091040260200160405190810160405280929190818152602001828054600181600116156101000203166002900480156107785780601f1061074d57610100808354040283529160200191610778565b820191906000526020600020905b81548152906001019060200180831161075b57829003601f168201915b50505050509050935093509350509250925092565b6000600260008581526020019081526020016000209050600160008581526020019081526020016000206000815480929190600101919050555060008160030160006001600088815260200190815260200160002054815260200190815260200160002090506001600086815260200190815260200160002054816000018190555083816001019080519060200190610827929190610cfd565b5082816002019080519060200190610840929190610cfd565b507fa6076c8b011874440bcaf6094f02621558459cbf4b063b78ad4c5a33275cb02e8560016000888152602001908152602001600020548686604051808581526020018481526020018060200180602001838103835285818151815260200191508051906020019080838360005b838110156108c95780820151818401526020810190506108ae565b50505050905090810190601f1680156108f65780820380516001836020036101000a031916815260200191505b50838103825284818151815260200191508051906020019080838360005b8381101561092f578082015181840152602081019050610914565b50505050905090810190601f16801561095c5780820380516001836020036101000a031916815260200191505b50965050505050505060405180910390a15050505050565b61097d81610c91565b1561098757600080fd5b60008081548092919060010191905055506000600260008054815260200190815260200160002090506000548160000181905550828160010190805190602001906109d3929190610cfd565b50600060016000805481526020019081526020016000208190555060038290806001815401808255809150509060018203906000526020600020016000909192909190915055507f1b9c66bebc3bb65be580f15bd02ccd659f45a19cba88d30edd490bb57bc4bfe06000548460006040518084815260200180602001838152602001828103825284818151815260200191508051906020019080838360005b83811015610a8d578082015181840152602081019050610a72565b50505050905090810190601f168015610aba5780820380516001836020036101000a031916815260200191505b5094505050505060405180910390a1505050565b600060606000806002600086815260200190815260200160002090508060000154816001016001600088815260200190815260200160002054818054600181600116156101000203166002900480601f016020809104026020016040519081016040528092919081815260200182805460018160011615610100020316600290048015610b9c5780601f10610b7157610100808354040283529160200191610b9c565b820191906000526020600020905b815481529060010190602001808311610b7f57829003601f168201915b50505050509150935093509350509193909250565b6002602052806000526040600020600091509050806000015490806001018054600181600116156101000203166002900480601f016020809104026020016040519081016040528092919081815260200182805460018160011615610100020316600290048015610c635780601f10610c3857610100808354040283529160200191610c63565b820191906000526020600020905b815481529060010190602001808311610c4657829003601f168201915b5050505050908060020154905083565b60005481565b60016020528060005260406000206000915090505481565b6000806003805490501415610ca95760009050610cf8565b60008090505b600380549050811015610cf2578260038281548110610cca57fe5b90600052602060002001541415610ce5576001915050610cf8565b8080600101915050610caf565b50600090505b919050565b828054600181600116156101000203166002900490600052602060002090601f016020900481019282601f10610d3e57805160ff1916838001178555610d6c565b82800160010185558215610d6c579182015b82811115610d6b578251825591602001919060010190610d50565b5b509050610d799190610d7d565b5090565b610d9f91905b80821115610d9b576000816000905550600101610d83565b5090565b9056fea265627a7a72315820b4d441cbf0e9ddede0235cf0cfba29b3c51a20df4e837d67f302995ca789833964736f6c63430005100032",
  "source": "// SPDX-License-Identifier: UNLICENSED\r\npragma solidity >=0.4.22 <0.9.0;\r\n\r\n/// @title A storage method for hospital patients and medical records\r\n/// @author Colin John LeMesurier\r\n\r\ncontract PatientRecord {\r\n    uint256 public patientCount = 0;\r\n    mapping(uint256 => uint256) public recordCount;\r\n\r\n    struct Record {\r\n        uint256 id;\r\n        string title;\r\n        string content;\r\n    }\r\n\r\n    struct Patient {\r\n        uint256 id;\r\n        string patient;\r\n        uint256 key;\r\n        mapping(uint256 => Record) records;\r\n    }\r\n    mapping(uint256 => Patient) public patients;\r\n    uint256[] private patientIndex;\r\n\r\n    event PatientCreated(uint256 id, string patient, uint256 recordCount);\r\n\r\n    event RecordCreated(\r\n        uint256 patientID,\r\n        uint256 recordID,\r\n        string title,\r\n        string content\r\n    );\r\n\r\n    /**\r\n     * Method to check if a patient already exisits in the blockchain\r\n     *\r\n     * @param key   the patients medicare number used as a key\r\n     */\r\n    function isPatient(uint256 key) public view returns (bool isIndeed) {\r\n        if (patientIndex.length == 0) return false;\r\n        for (uint256 i = 0; i < patientIndex.length; i++) {\r\n            if (patientIndex[i] == key) return true;\r\n        }\r\n        return false;\r\n    }\r\n\r\n    /**\r\n     * Create and store a patient's infomation in the blockchain\r\n     * \r\n     * @param _patient   the patients information\r\n     * @param key        the patients medicare number used as a key\r\n     */\r\n    function createPatient(string memory _patient, uint256 key) public {\r\n        if(isPatient(key)) revert(); \r\n        patientCount++;\r\n        Patient storage p = patients[patientCount];\r\n        p.id = patientCount;\r\n        p.patient = _patient;\r\n        recordCount[patientCount] = 0;\r\n        patientIndex.push(key);\r\n        emit PatientCreated(patientCount, _patient, 0);\r\n    }\r\n\r\n    /**\r\n     * Create a record for a patient specified by ID.\r\n     *\r\n     * @param _id      the ID of the patient\r\n     * @param _title   the title of the record entry\r\n     * @param _content the content of the record entry\r\n     */\r\n    function createRecord(\r\n        uint256 _id,\r\n        string memory _title,\r\n        string memory _content\r\n    ) public {\r\n        // TODO: switch from using id to medicare number for creating records.\r\n        //\t\t **perhaps get ID via medicare number.\r\n        Patient storage p = patients[_id];\r\n        recordCount[_id]++;\r\n        Record storage r = p.records[recordCount[_id]];\r\n        r.id = recordCount[_id];\r\n        r.title = _title;\r\n        r.content = _content;\r\n        emit RecordCreated(_id, recordCount[_id], _title, _content);\r\n    }\r\n\r\n    /**\r\n     * Returns a patient using their ID number as the index.\r\n     *\r\n     * @param index the index for the requested patient\r\n     * @return      an object containing requested patient's data\r\n     */\r\n    function getPatient(uint256 index)\r\n        public\r\n        view\r\n        returns (\r\n            uint256,\r\n            string memory,\r\n            uint256\r\n        )\r\n    {\r\n        Patient storage p = patients[index];\r\n        return (p.id, p.patient, recordCount[index]);\r\n    }\r\n\r\n    /**\r\n     * Returns a patient's record using the patient ID and record ID as the indices.\r\n     *\r\n     * @param patientIndex the index of the patient whose record is being requested\r\n     * @param recordIndex  the index of the record requested\r\n     * @return             the object of the record requested\r\n     */\r\n    function getRecord(uint256 patientIndex, uint256 recordIndex)\r\n        public\r\n        view\r\n        returns (\r\n            uint256,\r\n            string memory,\r\n            string memory\r\n        )\r\n    {\r\n        Patient storage p = patients[patientIndex];\r\n        return (\r\n            p.records[recordIndex].id,\r\n            p.records[recordIndex].title,\r\n            p.records[recordIndex].content\r\n        );\r\n    }\r\n}\r\n",
  "sourcePath": "C:/Users/coliw/Documents/drizzle-healthcare/contracts/PatientRecord.sol",
  "compiler": {
    "name": "solc",
    "version": "0.5.16+commit.9c3226ce.Emscripten.clang"
  },
  "schemaVersion": "3.3.4",
  "updatedAt": "2021-07-06T13:39:43.925Z",
  "networkType": "ethereum",
  "devdoc": {
    "author": "Colin John LeMesurier",
    "methods": {
      "createPatient(string,uint256)": {
        "params": {
          "_patient": "the patients information",
          "key": "the patients medicare number used as a key"
        }
      },
      "createRecord(uint256,string,string)": {
        "params": {
          "_content": "the content of the record entry",
          "_id": "the ID of the patient",
          "_title": "the title of the record entry"
        }
      },
      "getPatient(uint256)": {
        "params": {
          "index": "the index for the requested patient"
        },
        "return": "an object containing requested patient's data"
      },
      "getRecord(uint256,uint256)": {
        "params": {
          "patientIndex": "the index of the patient whose record is being requested",
          "recordIndex": "the index of the record requested"
        },
        "return": "the object of the record requested"
      },
      "isPatient(uint256)": {
        "params": {
          "key": "the patients medicare number used as a key"
        }
      }
    },
    "title": "A storage method for hospital patients and medical records"
  },
  "userdoc": {
    "methods": {
      "createPatient(string,uint256)": {
        "notice": "Create and store a patient's infomation in the blockchain \r"
      },
      "createRecord(uint256,string,string)": {
        "notice": "Create a record for a patient specified by ID. "
      },
      "getPatient(uint256)": {
        "notice": "Returns a patient using their ID number as the index. "
      },
      "getRecord(uint256,uint256)": {
        "notice": "Returns a patient's record using the patient ID and record ID as the indices. "
      },
      "isPatient(uint256)": {
        "notice": "Method to check if a patient already exisits in the blockchain "
      }
    }
  }
}