{
  "contractName": "PatientRecord",
  "abi": [
    {
      "inputs": [],
      "payable": false,
      "stateMutability": "nonpayable",
      "type": "constructor"
    },
    {
      "anonymous": false,
      "inputs": [
        {
          "indexed": false,
          "internalType": "uint256",
          "name": "id",
          "type": "uint256"
        },
        {
          "indexed": false,
          "internalType": "string",
          "name": "name",
          "type": "string"
        },
        {
          "indexed": false,
          "internalType": "string",
          "name": "medicare",
          "type": "string"
        },
        {
          "indexed": false,
          "internalType": "uint256",
          "name": "recordCount",
          "type": "uint256"
        }
      ],
      "name": "PatientCreated",
      "type": "event"
    },
    {
      "anonymous": false,
      "inputs": [
        {
          "indexed": false,
          "internalType": "uint256",
          "name": "patientID",
          "type": "uint256"
        },
        {
          "indexed": false,
          "internalType": "uint256",
          "name": "recordID",
          "type": "uint256"
        },
        {
          "indexed": false,
          "internalType": "string",
          "name": "title",
          "type": "string"
        },
        {
          "indexed": false,
          "internalType": "string",
          "name": "content",
          "type": "string"
        }
      ],
      "name": "RecordCreated",
      "type": "event"
    },
    {
      "constant": true,
      "inputs": [],
      "name": "patientCount",
      "outputs": [
        {
          "internalType": "uint256",
          "name": "",
          "type": "uint256"
        }
      ],
      "payable": false,
      "stateMutability": "view",
      "type": "function"
    },
    {
      "constant": true,
      "inputs": [
        {
          "internalType": "uint256",
          "name": "",
          "type": "uint256"
        }
      ],
      "name": "patients",
      "outputs": [
        {
          "internalType": "uint256",
          "name": "id",
          "type": "uint256"
        },
        {
          "internalType": "string",
          "name": "name",
          "type": "string"
        },
        {
          "internalType": "string",
          "name": "medicare",
          "type": "string"
        }
      ],
      "payable": false,
      "stateMutability": "view",
      "type": "function"
    },
    {
      "constant": true,
      "inputs": [
        {
          "internalType": "uint256",
          "name": "",
          "type": "uint256"
        }
      ],
      "name": "recordCount",
      "outputs": [
        {
          "internalType": "uint256",
          "name": "",
          "type": "uint256"
        }
      ],
      "payable": false,
      "stateMutability": "view",
      "type": "function"
    },
    {
      "constant": false,
      "inputs": [
        {
          "internalType": "string",
          "name": "_name",
          "type": "string"
        },
        {
          "internalType": "string",
          "name": "_medicare",
          "type": "string"
        }
      ],
      "name": "createPatient",
      "outputs": [],
      "payable": false,
      "stateMutability": "nonpayable",
      "type": "function"
    },
    {
      "constant": false,
      "inputs": [
        {
          "internalType": "uint256",
          "name": "_id",
          "type": "uint256"
        },
        {
          "internalType": "string",
          "name": "_title",
          "type": "string"
        },
        {
          "internalType": "string",
          "name": "_content",
          "type": "string"
        }
      ],
      "name": "createRecord",
      "outputs": [],
      "payable": false,
      "stateMutability": "nonpayable",
      "type": "function"
    },
    {
      "constant": true,
      "inputs": [
        {
          "internalType": "uint256",
          "name": "index",
          "type": "uint256"
        }
      ],
      "name": "getPatient",
      "outputs": [
        {
          "internalType": "uint256",
          "name": "",
          "type": "uint256"
        },
        {
          "internalType": "string",
          "name": "",
          "type": "string"
        },
        {
          "internalType": "string",
          "name": "",
          "type": "string"
        },
        {
          "internalType": "uint256",
          "name": "",
          "type": "uint256"
        }
      ],
      "payable": false,
      "stateMutability": "view",
      "type": "function"
    },
    {
      "constant": true,
      "inputs": [
        {
          "internalType": "uint256",
          "name": "patientIndex",
          "type": "uint256"
        },
        {
          "internalType": "uint256",
          "name": "recordIndex",
          "type": "uint256"
        }
      ],
      "name": "getRecord",
      "outputs": [
        {
          "internalType": "uint256",
          "name": "",
          "type": "uint256"
        },
        {
          "internalType": "string",
          "name": "",
          "type": "string"
        },
        {
          "internalType": "string",
          "name": "",
          "type": "string"
        }
      ],
      "payable": false,
      "stateMutability": "view",
      "type": "function"
    }
  ],
  "bytecode": "0x6080604052600080553480156200001557600080fd5b50620000926040518060400160405280600881526020017f4a6f686e20446f650000000000000000000000000000000000000000000000008152506040518060400160405280600981526020017f31313131313131313100000000000000000000000000000000000000000000008152506200011660201b60201c565b6200011060016040518060400160405280600581526020017f5469746c650000000000000000000000000000000000000000000000000000008152506040518060400160405280600781526020017f436f6e74656e7400000000000000000000000000000000000000000000000000815250620002c160201b60201c565b62000561565b600080815480929190600101919050555060006002600080548152602001908152602001600020905060005481600001819055508281600101908051906020019062000164929190620004b2565b50818160020190805190602001906200017f929190620004b2565b5060006001600080548152602001908152602001600020819055507f28933db399a5285f1169315615d7d30053bc4c3ffd86731434a39b94a70d7fa960005484846000604051808581526020018060200180602001848152602001838103835286818151815260200191508051906020019080838360005b8381101562000214578082015181840152602081019050620001f7565b50505050905090810190601f168015620002425780820380516001836020036101000a031916815260200191505b50838103825285818151815260200191508051906020019080838360005b838110156200027d57808201518184015260208101905062000260565b50505050905090810190601f168015620002ab5780820380516001836020036101000a031916815260200191505b50965050505050505060405180910390a1505050565b60006002600085815260200190815260200160002090506001600085815260200190815260200160002060008154809291906001019190505550600081600301600060016000888152602001908152602001600020548152602001908152602001600020905060016000868152602001908152602001600020548160000181905550838160010190805190602001906200035d929190620004b2565b508281600201908051906020019062000378929190620004b2565b507fa6076c8b011874440bcaf6094f02621558459cbf4b063b78ad4c5a33275cb02e8560016000888152602001908152602001600020548686604051808581526020018481526020018060200180602001838103835285818151815260200191508051906020019080838360005b8381101562000403578082015181840152602081019050620003e6565b50505050905090810190601f168015620004315780820380516001836020036101000a031916815260200191505b50838103825284818151815260200191508051906020019080838360005b838110156200046c5780820151818401526020810190506200044f565b50505050905090810190601f1680156200049a5780820380516001836020036101000a031916815260200191505b50965050505050505060405180910390a15050505050565b828054600181600116156101000203166002900490600052602060002090601f016020900481019282601f10620004f557805160ff191683800117855562000526565b8280016001018555821562000526579182015b828111156200052557825182559160200191906001019062000508565b5b50905062000535919062000539565b5090565b6200055e91905b808211156200055a57600081600090555060010162000540565b5090565b90565b61101980620005716000396000f3fe608060405234801561001057600080fd5b506004361061007d5760003560e01c80637d3a67961161005b5780637d3a67961461045457806393119a8314610575578063a0303c411461068f578063dbc9cc53146106ad5761007d565b8063334065021461008257806335c5c904146101a65780633984875014610302575b600080fd5b6100b86004803603604081101561009857600080fd5b8101908080359060200190929190803590602001909291905050506106ef565b604051808481526020018060200180602001838103835285818151815260200191508051906020019080838360005b838110156101025780820151818401526020810190506100e7565b50505050905090810190601f16801561012f5780820380516001836020036101000a031916815260200191505b50838103825284818151815260200191508051906020019080838360005b8381101561016857808201518184015260208101905061014d565b50505050905090810190601f1680156101955780820380516001836020036101000a031916815260200191505b509550505050505060405180910390f35b610300600480360360608110156101bc57600080fd5b8101908080359060200190929190803590602001906401000000008111156101e357600080fd5b8201836020820111156101f557600080fd5b8035906020019184600183028401116401000000008311171561021757600080fd5b91908080601f016020809104026020016040519081016040528093929190818152602001838380828437600081840152601f19601f8201169050808301925050505050505091929192908035906020019064010000000081111561027a57600080fd5b82018360208201111561028c57600080fd5b803590602001918460018302840111640100000000831117156102ae57600080fd5b91908080601f016020809104026020016040519081016040528093929190818152602001838380828437600081840152601f19601f82011690508083019250505050505050919291929050505061089a565b005b6104526004803603604081101561031857600080fd5b810190808035906020019064010000000081111561033557600080fd5b82018360208201111561034757600080fd5b8035906020019184600183028401116401000000008311171561036957600080fd5b91908080601f016020809104026020016040519081016040528093929190818152602001838380828437600081840152601f19601f820116905080830192505050505050509192919290803590602001906401000000008111156103cc57600080fd5b8201836020820111156103de57600080fd5b8035906020019184600183028401116401000000008311171561040057600080fd5b91908080601f016020809104026020016040519081016040528093929190818152602001838380828437600081840152601f19601f820116905080830192505050505050509192919290505050610a81565b005b6104806004803603602081101561046a57600080fd5b8101908080359060200190929190505050610c22565b604051808581526020018060200180602001848152602001838103835286818151815260200191508051906020019080838360005b838110156104d05780820151818401526020810190506104b5565b50505050905090810190601f1680156104fd5780820380516001836020036101000a031916815260200191505b50838103825285818151815260200191508051906020019080838360005b8381101561053657808201518184015260208101905061051b565b50505050905090810190601f1680156105635780820380516001836020036101000a031916815260200191505b50965050505050505060405180910390f35b6105a16004803603602081101561058b57600080fd5b8101908080359060200190929190505050610dc7565b604051808481526020018060200180602001838103835285818151815260200191508051906020019080838360005b838110156105eb5780820151818401526020810190506105d0565b50505050905090810190601f1680156106185780820380516001836020036101000a031916815260200191505b50838103825284818151815260200191508051906020019080838360005b83811015610651578082015181840152602081019050610636565b50505050905090810190601f16801561067e5780820380516001836020036101000a031916815260200191505b509550505050505060405180910390f35b610697610f21565b6040518082815260200191505060405180910390f35b6106d9600480360360208110156106c357600080fd5b8101908080359060200190929190505050610f27565b6040518082815260200191505060405180910390f35b6000606080600060026000878152602001908152602001600020905080600301600086815260200190815260200160002060000154816003016000878152602001908152602001600020600101826003016000888152602001908152602001600020600201818054600181600116156101000203166002900480601f0160208091040260200160405190810160405280929190818152602001828054600181600116156101000203166002900480156107e95780601f106107be576101008083540402835291602001916107e9565b820191906000526020600020905b8154815290600101906020018083116107cc57829003601f168201915b50505050509150808054600181600116156101000203166002900480601f0160208091040260200160405190810160405280929190818152602001828054600181600116156101000203166002900480156108855780601f1061085a57610100808354040283529160200191610885565b820191906000526020600020905b81548152906001019060200180831161086857829003601f168201915b50505050509050935093509350509250925092565b6000600260008581526020019081526020016000209050600160008581526020019081526020016000206000815480929190600101919050555060008160030160006001600088815260200190815260200160002054815260200190815260200160002090506001600086815260200190815260200160002054816000018190555083816001019080519060200190610934929190610f3f565b508281600201908051906020019061094d929190610f3f565b507fa6076c8b011874440bcaf6094f02621558459cbf4b063b78ad4c5a33275cb02e8560016000888152602001908152602001600020548686604051808581526020018481526020018060200180602001838103835285818151815260200191508051906020019080838360005b838110156109d65780820151818401526020810190506109bb565b50505050905090810190601f168015610a035780820380516001836020036101000a031916815260200191505b50838103825284818151815260200191508051906020019080838360005b83811015610a3c578082015181840152602081019050610a21565b50505050905090810190601f168015610a695780820380516001836020036101000a031916815260200191505b50965050505050505060405180910390a15050505050565b6000808154809291906001019190505550600060026000805481526020019081526020016000209050600054816000018190555082816001019080519060200190610acd929190610f3f565b5081816002019080519060200190610ae6929190610f3f565b5060006001600080548152602001908152602001600020819055507f28933db399a5285f1169315615d7d30053bc4c3ffd86731434a39b94a70d7fa960005484846000604051808581526020018060200180602001848152602001838103835286818151815260200191508051906020019080838360005b83811015610b79578082015181840152602081019050610b5e565b50505050905090810190601f168015610ba65780820380516001836020036101000a031916815260200191505b50838103825285818151815260200191508051906020019080838360005b83811015610bdf578082015181840152602081019050610bc4565b50505050905090810190601f168015610c0c5780820380516001836020036101000a031916815260200191505b50965050505050505060405180910390a1505050565b60006060806000600260008681526020019081526020016000206000015460026000878152602001908152602001600020600101600260008881526020019081526020016000206002016001600089815260200190815260200160002054828054600181600116156101000203166002900480601f016020809104026020016040519081016040528092919081815260200182805460018160011615610100020316600290048015610d155780601f10610cea57610100808354040283529160200191610d15565b820191906000526020600020905b815481529060010190602001808311610cf857829003601f168201915b50505050509250818054600181600116156101000203166002900480601f016020809104026020016040519081016040528092919081815260200182805460018160011615610100020316600290048015610db15780601f10610d8657610100808354040283529160200191610db1565b820191906000526020600020905b815481529060010190602001808311610d9457829003601f168201915b5050505050915093509350935093509193509193565b6002602052806000526040600020600091509050806000015490806001018054600181600116156101000203166002900480601f016020809104026020016040519081016040528092919081815260200182805460018160011615610100020316600290048015610e795780601f10610e4e57610100808354040283529160200191610e79565b820191906000526020600020905b815481529060010190602001808311610e5c57829003601f168201915b505050505090806002018054600181600116156101000203166002900480601f016020809104026020016040519081016040528092919081815260200182805460018160011615610100020316600290048015610f175780601f10610eec57610100808354040283529160200191610f17565b820191906000526020600020905b815481529060010190602001808311610efa57829003601f168201915b5050505050905083565b60005481565b60016020528060005260406000206000915090505481565b828054600181600116156101000203166002900490600052602060002090601f016020900481019282601f10610f8057805160ff1916838001178555610fae565b82800160010185558215610fae579182015b82811115610fad578251825591602001919060010190610f92565b5b509050610fbb9190610fbf565b5090565b610fe191905b80821115610fdd576000816000905550600101610fc5565b5090565b9056fea265627a7a72315820894686c2658723d78cbb6eb2d00f6b5b73f04401c47155b30bba8ffa8e52782f64736f6c63430005100032",
  "source": "// SPDX-License-Identifier: UNLICENSED\r\npragma solidity >=0.4.22 <0.9.0;\r\n\r\n/// @title A storage method for hospital patients and medical records\r\n/// @author Colin John LeMesurier\r\n\r\ncontract PatientRecord {\r\n    uint256 public patientCount = 0;\r\n    mapping(uint => uint) public recordCount;\r\n\r\n    struct Record {\r\n        uint256 id;\r\n        string title;\r\n        string content;\r\n    }\r\n\r\n    struct Patient {\r\n        uint256 id;\r\n        string name;\r\n        string medicare;\r\n        mapping(uint256 => Record) records;\r\n    }\r\n\r\n    mapping(uint256 => Patient) public patients;\r\n\r\n    event PatientCreated(\r\n        uint256 id,\r\n        string name,\r\n        string medicare,\r\n        uint256 recordCount\r\n    );\r\n    event RecordCreated(\r\n        uint256 patientID,\r\n        uint256 recordID,\r\n        string title,\r\n        string content\r\n    );\r\n\r\n    constructor() public {\r\n        createPatient(\"John Doe\", \"111111111\");\r\n        createRecord(1, \"Title\", \"Content\");\r\n    }\r\n\r\n    /**\r\n     * Creates a patient with an ID, name, and medicare number,\r\n     * and initializes the record count of the patient to 0.\r\n     *\r\n     * @param _name       the name of the patient\r\n     * @param _medicare   the medicare number of patient\r\n     */\r\n    function createPatient(string memory _name, string memory _medicare)\r\n        public\r\n    {\r\n        // TODO: Check if patient already exists (compare medicare #'s)\r\n\r\n        patientCount++;\r\n        Patient storage p = patients[patientCount];\r\n        p.id = patientCount;\r\n        p.name = _name;\r\n        p.medicare = _medicare;\r\n        recordCount[patientCount] = 0;\r\n        emit PatientCreated(patientCount, _name, _medicare, 0);\r\n    }\r\n\r\n    /**\r\n     * Create a record for a patient specified by ID.\r\n     *\r\n     * @param _id      the ID of the patient\r\n     * @param _title   the title of the record entry\r\n     * @param _content the content of the record entry\r\n     */\r\n    function createRecord(\r\n        uint256 _id,\r\n        string memory _title,\r\n        string memory _content\r\n    ) public {\r\n        // TODO: switch from using id to medicare number for creating records.\r\n        //\t\t **perhaps get ID via medicare number.\r\n        Patient storage p = patients[_id];\r\n        recordCount[_id]++;\r\n        Record storage r = p.records[recordCount[_id]];\r\n        r.id = recordCount[_id];\r\n        r.title = _title;\r\n        r.content = _content;\r\n        emit RecordCreated(_id, recordCount[_id], _title, _content);\r\n    }\r\n\r\n    /**\r\n     * Returns a patient using their ID number as the index.\r\n     *\r\n     * @param index the index for the requested patient\r\n     * @return      the object containing requested patient's data\r\n     */\r\n    function getPatient(uint256 index)\r\n        public\r\n        view\r\n        returns (\r\n            uint256,\r\n            string memory,\r\n            string memory,\r\n            uint256\r\n        )\r\n    {\r\n        return (\r\n            patients[index].id,\r\n            patients[index].name,\r\n            patients[index].medicare,\r\n            recordCount[index]\r\n        );\r\n    }\r\n\r\n    /**\r\n     * Returns a patient's record using the patient ID and record ID as the indices.\r\n     *\r\n     * @param patientIndex the index of the patient whose record is being requested\r\n     * @param recordIndex  the index of the record requested\r\n     * @return             the object of the record requested\r\n     */\r\n    function getRecord(uint256 patientIndex, uint256 recordIndex)\r\n        public\r\n        view\r\n        returns (\r\n            uint256,\r\n            string memory,\r\n            string memory\r\n        )\r\n    {\r\n        Patient storage p = patients[patientIndex];\r\n        return (\r\n            p.records[recordIndex].id,\r\n            p.records[recordIndex].title,\r\n            p.records[recordIndex].content\r\n        );\r\n    }\r\n}\r\n",
  "sourcePath": "C:/Users/coliw/Documents/drizzle-healthcare/contracts/PatientRecord.sol",
  "compiler": {
    "name": "solc",
    "version": "0.5.16+commit.9c3226ce.Emscripten.clang"
  },
  "schemaVersion": "3.3.4",
  "updatedAt": "2021-06-23T12:20:05.086Z",
  "networkType": "ethereum",
  "devdoc": {
    "author": "Colin John LeMesurier",
    "methods": {
      "createPatient(string,string)": {
        "params": {
          "_medicare": "the medicare number of patient",
          "_name": "the name of the patient"
        }
      },
      "createRecord(uint256,string,string)": {
        "params": {
          "_content": "the content of the record entry",
          "_id": "the ID of the patient",
          "_title": "the title of the record entry"
        }
      },
      "getPatient(uint256)": {
        "params": {
          "index": "the index for the requested patient"
        },
        "return": "the object containing requested patient's data"
      },
      "getRecord(uint256,uint256)": {
        "params": {
          "patientIndex": "the index of the patient whose record is being requested",
          "recordIndex": "the index of the record requested"
        },
        "return": "the object of the record requested"
      }
    },
    "title": "A storage method for hospital patients and medical records"
  },
  "userdoc": {
    "methods": {
      "createPatient(string,string)": {
        "notice": "Creates a patient with an ID, name, and medicare number, and initializes the record count of the patient to 0. "
      },
      "createRecord(uint256,string,string)": {
        "notice": "Create a record for a patient specified by ID. "
      },
      "getPatient(uint256)": {
        "notice": "Returns a patient using their ID number as the index. "
      },
      "getRecord(uint256,uint256)": {
        "notice": "Returns a patient's record using the patient ID and record ID as the indices. "
      }
    }
  }
}