{
  "contractName": "PatientRecord",
  "abi": [
    {
      "inputs": [],
      "payable": false,
      "stateMutability": "nonpayable",
      "type": "constructor"
    },
    {
      "anonymous": false,
      "inputs": [
        {
          "indexed": false,
          "internalType": "uint256",
          "name": "id",
          "type": "uint256"
        },
        {
          "indexed": false,
          "internalType": "string",
          "name": "name",
          "type": "string"
        },
        {
          "indexed": false,
          "internalType": "string",
          "name": "medicare",
          "type": "string"
        },
        {
          "indexed": false,
          "internalType": "uint256",
          "name": "recordCount",
          "type": "uint256"
        }
      ],
      "name": "PatientCreated",
      "type": "event"
    },
    {
      "anonymous": false,
      "inputs": [
        {
          "indexed": false,
          "internalType": "uint256",
          "name": "patientID",
          "type": "uint256"
        },
        {
          "indexed": false,
          "internalType": "uint256",
          "name": "recordID",
          "type": "uint256"
        },
        {
          "indexed": false,
          "internalType": "string",
          "name": "title",
          "type": "string"
        },
        {
          "indexed": false,
          "internalType": "string",
          "name": "content",
          "type": "string"
        }
      ],
      "name": "RecordCreated",
      "type": "event"
    },
    {
      "constant": true,
      "inputs": [],
      "name": "patientCount",
      "outputs": [
        {
          "internalType": "uint256",
          "name": "",
          "type": "uint256"
        }
      ],
      "payable": false,
      "stateMutability": "view",
      "type": "function"
    },
    {
      "constant": false,
      "inputs": [
        {
          "internalType": "string",
          "name": "_name",
          "type": "string"
        },
        {
          "internalType": "string",
          "name": "_medicare",
          "type": "string"
        }
      ],
      "name": "createPatient",
      "outputs": [],
      "payable": false,
      "stateMutability": "nonpayable",
      "type": "function"
    },
    {
      "constant": false,
      "inputs": [
        {
          "internalType": "uint256",
          "name": "_id",
          "type": "uint256"
        },
        {
          "internalType": "string",
          "name": "_title",
          "type": "string"
        },
        {
          "internalType": "string",
          "name": "_content",
          "type": "string"
        }
      ],
      "name": "createRecord",
      "outputs": [],
      "payable": false,
      "stateMutability": "nonpayable",
      "type": "function"
    },
    {
      "constant": true,
      "inputs": [
        {
          "internalType": "uint256",
          "name": "index",
          "type": "uint256"
        }
      ],
      "name": "getPatient",
      "outputs": [
        {
          "internalType": "uint256",
          "name": "",
          "type": "uint256"
        },
        {
          "internalType": "string",
          "name": "",
          "type": "string"
        },
        {
          "internalType": "string",
          "name": "",
          "type": "string"
        }
      ],
      "payable": false,
      "stateMutability": "view",
      "type": "function"
    },
    {
      "constant": true,
      "inputs": [
        {
          "internalType": "uint256",
          "name": "patientIndex",
          "type": "uint256"
        },
        {
          "internalType": "uint256",
          "name": "recordIndex",
          "type": "uint256"
        }
      ],
      "name": "getRecord",
      "outputs": [
        {
          "internalType": "uint256",
          "name": "",
          "type": "uint256"
        },
        {
          "internalType": "string",
          "name": "",
          "type": "string"
        },
        {
          "internalType": "string",
          "name": "",
          "type": "string"
        }
      ],
      "payable": false,
      "stateMutability": "view",
      "type": "function"
    }
  ],
  "bytecode": "0x6080604052600080553480156200001557600080fd5b50620000926040518060400160405280600881526020017f4a6f686e20446f650000000000000000000000000000000000000000000000008152506040518060400160405280600981526020017f31313131313131313100000000000000000000000000000000000000000000008152506200011660201b60201c565b6200011060016040518060400160405280600581526020017f5469746c650000000000000000000000000000000000000000000000000000008152506040518060400160405280600781526020017f436f6e74656e7400000000000000000000000000000000000000000000000000815250620002ae60201b60201c565b6200050c565b6000600160008060008154809291906001019190505581526020019081526020016000209050600054816000018190555082816001019080519060200190620001619291906200045d565b50818160020190805190602001906200017c9291906200045d565b50600081600301819055507f28933db399a5285f1169315615d7d30053bc4c3ffd86731434a39b94a70d7fa960005484846000604051808581526020018060200180602001848152602001838103835286818151815260200191508051906020019080838360005b8381101562000201578082015181840152602081019050620001e4565b50505050905090810190601f1680156200022f5780820380516001836020036101000a031916815260200191505b50838103825285818151815260200191508051906020019080838360005b838110156200026a5780820151818401526020810190506200024d565b50505050905090810190601f168015620002985780820380516001836020036101000a031916815260200191505b50965050505050505060405180910390a1505050565b6000600160008581526020019081526020016000209050600081600401600083600301600081548092919060010191905055815260200190815260200160002090508160030154816000018190555083816001019080519060200190620003179291906200045d565b5082816002019080519060200190620003329291906200045d565b507fa6076c8b011874440bcaf6094f02621558459cbf4b063b78ad4c5a33275cb02e8583600301548686604051808581526020018481526020018060200180602001838103835285818151815260200191508051906020019080838360005b83811015620003ae57808201518184015260208101905062000391565b50505050905090810190601f168015620003dc5780820380516001836020036101000a031916815260200191505b50838103825284818151815260200191508051906020019080838360005b8381101562000417578082015181840152602081019050620003fa565b50505050905090810190601f168015620004455780820380516001836020036101000a031916815260200191505b50965050505050505060405180910390a15050505050565b828054600181600116156101000203166002900490600052602060002090601f016020900481019282601f10620004a057805160ff1916838001178555620004d1565b82800160010185558215620004d1579182015b82811115620004d0578251825591602001919060010190620004b3565b5b509050620004e09190620004e4565b5090565b6200050991905b8082111562000505576000816000905550600101620004eb565b5090565b90565b610cb1806200051c6000396000f3fe608060405234801561001057600080fd5b50600436106100575760003560e01c8063334065021461005c57806335c5c9041461018057806339848750146102dc5780637d3a67961461042e578063a0303c4114610548575b600080fd5b6100926004803603604081101561007257600080fd5b810190808035906020019092919080359060200190929190505050610566565b604051808481526020018060200180602001838103835285818151815260200191508051906020019080838360005b838110156100dc5780820151818401526020810190506100c1565b50505050905090810190601f1680156101095780820380516001836020036101000a031916815260200191505b50838103825284818151815260200191508051906020019080838360005b83811015610142578082015181840152602081019050610127565b50505050905090810190601f16801561016f5780820380516001836020036101000a031916815260200191505b509550505050505060405180910390f35b6102da6004803603606081101561019657600080fd5b8101908080359060200190929190803590602001906401000000008111156101bd57600080fd5b8201836020820111156101cf57600080fd5b803590602001918460018302840111640100000000831117156101f157600080fd5b91908080601f016020809104026020016040519081016040528093929190818152602001838380828437600081840152601f19601f8201169050808301925050505050505091929192908035906020019064010000000081111561025457600080fd5b82018360208201111561026657600080fd5b8035906020019184600183028401116401000000008311171561028857600080fd5b91908080601f016020809104026020016040519081016040528093929190818152602001838380828437600081840152601f19601f820116905080830192505050505050509192919290505050610711565b005b61042c600480360360408110156102f257600080fd5b810190808035906020019064010000000081111561030f57600080fd5b82018360208201111561032157600080fd5b8035906020019184600183028401116401000000008311171561034357600080fd5b91908080601f016020809104026020016040519081016040528093929190818152602001838380828437600081840152601f19601f820116905080830192505050505050509192919290803590602001906401000000008111156103a657600080fd5b8201836020820111156103b857600080fd5b803590602001918460018302840111640100000000831117156103da57600080fd5b91908080601f016020809104026020016040519081016040528093929190818152602001838380828437600081840152601f19601f8201169050808301925050505050505091929192905050506108b6565b005b61045a6004803603602081101561044457600080fd5b8101908080359060200190929190505050610a44565b604051808481526020018060200180602001838103835285818151815260200191508051906020019080838360005b838110156104a4578082015181840152602081019050610489565b50505050905090810190601f1680156104d15780820380516001836020036101000a031916815260200191505b50838103825284818151815260200191508051906020019080838360005b8381101561050a5780820151818401526020810190506104ef565b50505050905090810190601f1680156105375780820380516001836020036101000a031916815260200191505b509550505050505060405180910390f35b610550610bd1565b6040518082815260200191505060405180910390f35b6000606080600060016000878152602001908152602001600020905080600401600086815260200190815260200160002060000154816004016000878152602001908152602001600020600101826004016000888152602001908152602001600020600201818054600181600116156101000203166002900480601f0160208091040260200160405190810160405280929190818152602001828054600181600116156101000203166002900480156106605780601f1061063557610100808354040283529160200191610660565b820191906000526020600020905b81548152906001019060200180831161064357829003601f168201915b50505050509150808054600181600116156101000203166002900480601f0160208091040260200160405190810160405280929190818152602001828054600181600116156101000203166002900480156106fc5780601f106106d1576101008083540402835291602001916106fc565b820191906000526020600020905b8154815290600101906020018083116106df57829003601f168201915b50505050509050935093509350509250925092565b6000600160008581526020019081526020016000209050600081600401600083600301600081548092919060010191905055815260200190815260200160002090508160030154816000018190555083816001019080519060200190610778929190610bd7565b5082816002019080519060200190610791929190610bd7565b507fa6076c8b011874440bcaf6094f02621558459cbf4b063b78ad4c5a33275cb02e8583600301548686604051808581526020018481526020018060200180602001838103835285818151815260200191508051906020019080838360005b8381101561080b5780820151818401526020810190506107f0565b50505050905090810190601f1680156108385780820380516001836020036101000a031916815260200191505b50838103825284818151815260200191508051906020019080838360005b83811015610871578082015181840152602081019050610856565b50505050905090810190601f16801561089e5780820380516001836020036101000a031916815260200191505b50965050505050505060405180910390a15050505050565b60006001600080600081548092919060010191905055815260200190815260200160002090506000548160000181905550828160010190805190602001906108ff929190610bd7565b5081816002019080519060200190610918929190610bd7565b50600081600301819055507f28933db399a5285f1169315615d7d30053bc4c3ffd86731434a39b94a70d7fa960005484846000604051808581526020018060200180602001848152602001838103835286818151815260200191508051906020019080838360005b8381101561099b578082015181840152602081019050610980565b50505050905090810190601f1680156109c85780820380516001836020036101000a031916815260200191505b50838103825285818151815260200191508051906020019080838360005b83811015610a015780820151818401526020810190506109e6565b50505050905090810190601f168015610a2e5780820380516001836020036101000a031916815260200191505b50965050505050505060405180910390a1505050565b600060608060016000858152602001908152602001600020600001546001600086815260200190815260200160002060010160016000878152602001908152602001600020600201818054600181600116156101000203166002900480601f016020809104026020016040519081016040528092919081815260200182805460018160011615610100020316600290048015610b215780601f10610af657610100808354040283529160200191610b21565b820191906000526020600020905b815481529060010190602001808311610b0457829003601f168201915b50505050509150808054600181600116156101000203166002900480601f016020809104026020016040519081016040528092919081815260200182805460018160011615610100020316600290048015610bbd5780601f10610b9257610100808354040283529160200191610bbd565b820191906000526020600020905b815481529060010190602001808311610ba057829003601f168201915b505050505090509250925092509193909250565b60005481565b828054600181600116156101000203166002900490600052602060002090601f016020900481019282601f10610c1857805160ff1916838001178555610c46565b82800160010185558215610c46579182015b82811115610c45578251825591602001919060010190610c2a565b5b509050610c539190610c57565b5090565b610c7991905b80821115610c75576000816000905550600101610c5d565b5090565b9056fea265627a7a72315820f5b257ad5e9357cc230ad05bcbeff7f140f3baed9d28725ba04fc55061bf9d9464736f6c63430005100032",
  "source": "// SPDX-License-Identifier: UNLICENSED\r\npragma solidity >=0.4.22 <0.9.0;\r\n\r\n/// @title A storage method for hospital patients and medical records\r\n/// @author Colin John LeMesurier\r\n\r\ncontract PatientRecord {\r\n    uint256 public patientCount = 0;\r\n\r\n    struct Record {\r\n        uint256 id;\r\n        string title;\r\n        string content;\r\n    }\r\n\r\n    struct Patient {\r\n        uint256 id;\r\n        string name;\r\n        string medicare;\r\n        uint256 recordCount;\r\n        mapping(uint256 => Record) records;\r\n    }\r\n\r\n    mapping(uint256 => Patient) patients;\r\n\r\n    event PatientCreated(\r\n        uint256 id,\r\n        string name,\r\n        string medicare,\r\n        uint256 recordCount\r\n    );\r\n    event RecordCreated(\r\n        uint256 patientID,\r\n        uint256 recordID,\r\n        string title,\r\n        string content\r\n    );\r\n\r\n\tconstructor() public {\r\n\t\tcreatePatient(\"John Doe\", \"111111111\");\r\n\t\tcreateRecord(1, \"Title\", \"Content\");\r\n\t}\r\n\r\n    /**\r\n     * Creates a patient with an ID, name, and medicare number,\r\n     * and initializes the record count of the patient to 0.\r\n     *\r\n     * @param _name       the name of the patient\r\n     * @param _medicare   the medicare number of patient\r\n     */\r\n    function createPatient(string memory _name, string memory _medicare)\r\n        public\r\n    {\r\n        // TODO: Check if with name and medicare number already exists\r\n\r\n        Patient storage p = patients[patientCount++];\r\n        p.id = patientCount;\r\n        p.name = _name;\r\n        p.medicare = _medicare;\r\n        p.recordCount = 0;\r\n        emit PatientCreated(patientCount, _name, _medicare, 0);\r\n    }\r\n\r\n    /**\r\n     * Create a record for a patient specified by ID.\r\n     *\r\n     * @param _id      the ID of the patient\r\n     * @param _title   the title of the record entry\r\n     * @param _content the content of the record entry\r\n     */\r\n    function createRecord(\r\n        uint256 _id,\r\n        string memory _title,\r\n        string memory _content\r\n    ) public {\r\n        Patient storage p = patients[_id];\r\n        Record storage r = p.records[p.recordCount++];\r\n        r.id = p.recordCount;\r\n        r.title = _title;\r\n        r.content = _content;\r\n        emit RecordCreated(_id, p.recordCount, _title, _content);\r\n    }\r\n\r\n    /**\r\n     * Returns a patient using their ID number as the index.\r\n     *\r\n     * @param index the index for the requested patient\r\n     * @return      the object containing requested patient's data\r\n     */\r\n    function getPatient(uint256 index)\r\n        public\r\n        view\r\n        returns (\r\n            uint256,\r\n            string memory,\r\n            string memory\r\n        )\r\n    {\r\n        return (\r\n            patients[index].id,\r\n            patients[index].name,\r\n            patients[index].medicare\r\n        );\r\n    }\r\n\r\n    /**\r\n     * Returns a patient's record using the patient ID and record ID as the indices.\r\n     *\r\n     * @param patientIndex the index of the patient whose record is being requested\r\n     * @param recordIndex  the index of the record requested\r\n     * @return             the object of the record requested\r\n     */\r\n    function getRecord(uint256 patientIndex, uint256 recordIndex)\r\n        public\r\n        view\r\n        returns (\r\n            uint256,\r\n            string memory,\r\n            string memory\r\n        )\r\n    {\r\n        Patient storage p = patients[patientIndex];\r\n        return (\r\n            p.records[recordIndex].id,\r\n            p.records[recordIndex].title,\r\n            p.records[recordIndex].content\r\n        );\r\n    }\r\n}\r\n",
  "sourcePath": "C:/Users/coliw/Documents/drizzle-healthcare/contracts/PatientRecord.sol",
  "compiler": {
    "name": "solc",
    "version": "0.5.16+commit.9c3226ce.Emscripten.clang"
  },
  "schemaVersion": "3.3.4",
  "updatedAt": "2021-06-21T12:49:11.131Z",
  "networkType": "ethereum",
  "devdoc": {
    "author": "Colin John LeMesurier",
    "methods": {
      "createPatient(string,string)": {
        "params": {
          "_medicare": "the medicare number of patient",
          "_name": "the name of the patient"
        }
      },
      "createRecord(uint256,string,string)": {
        "params": {
          "_content": "the content of the record entry",
          "_id": "the ID of the patient",
          "_title": "the title of the record entry"
        }
      },
      "getPatient(uint256)": {
        "params": {
          "index": "the index for the requested patient"
        },
        "return": "the object containing requested patient's data"
      },
      "getRecord(uint256,uint256)": {
        "params": {
          "patientIndex": "the index of the patient whose record is being requested",
          "recordIndex": "the index of the record requested"
        },
        "return": "the object of the record requested"
      }
    },
    "title": "A storage method for hospital patients and medical records"
  },
  "userdoc": {
    "methods": {
      "createPatient(string,string)": {
        "notice": "Creates a patient with an ID, name, and medicare number, and initializes the record count of the patient to 0. "
      },
      "createRecord(uint256,string,string)": {
        "notice": "Create a record for a patient specified by ID. "
      },
      "getPatient(uint256)": {
        "notice": "Returns a patient using their ID number as the index. "
      },
      "getRecord(uint256,uint256)": {
        "notice": "Returns a patient's record using the patient ID and record ID as the indices. "
      }
    }
  }
}